{
  "contractName": "ProfileRating",
  "abi": [
    {
      "inputs": [
        {
          "internalType": "address",
          "name": "_owner_address",
          "type": "address"
        }
      ],
      "stateMutability": "nonpayable",
      "type": "constructor"
    },
    {
      "inputs": [],
      "name": "owner_address",
      "outputs": [
        {
          "internalType": "address",
          "name": "",
          "type": "address"
        }
      ],
      "stateMutability": "view",
      "type": "function",
      "constant": true
    },
    {
      "inputs": [],
      "name": "ratingCount",
      "outputs": [
        {
          "internalType": "uint256",
          "name": "",
          "type": "uint256"
        }
      ],
      "stateMutability": "view",
      "type": "function",
      "constant": true
    },
    {
      "inputs": [
        {
          "internalType": "uint256",
          "name": "",
          "type": "uint256"
        }
      ],
      "name": "ratings",
      "outputs": [
        {
          "internalType": "uint256",
          "name": "id",
          "type": "uint256"
        },
        {
          "internalType": "uint256",
          "name": "score",
          "type": "uint256"
        },
        {
          "internalType": "string",
          "name": "content",
          "type": "string"
        }
      ],
      "stateMutability": "view",
      "type": "function",
      "constant": true
    },
    {
      "inputs": [],
      "name": "totalScore",
      "outputs": [
        {
          "internalType": "uint256",
          "name": "",
          "type": "uint256"
        }
      ],
      "stateMutability": "view",
      "type": "function",
      "constant": true
    },
    {
      "inputs": [
        {
          "internalType": "uint256",
          "name": "_score",
          "type": "uint256"
        },
        {
          "internalType": "string",
          "name": "_content",
          "type": "string"
        }
      ],
      "name": "createRating",
      "outputs": [],
      "stateMutability": "nonpayable",
      "type": "function"
    }
  ],
  "bytecode": "0x608060405260008055600060015534801561001957600080fd5b5060405161057e38038061057e8339818101604052602081101561003c57600080fd5b5051600280546001600160a01b0319166001600160a01b03831617905560408051808201909152601481527f4d7920766572792066697273742072657669657700000000000000000000000060208201526100999060059061009f565b50610190565b60008054600190810180835560408051606081018252828152602080820188815282840188815294875260038252929095208151815591519382019390935590518051929391926100f692600285019201906100fd565b5050505050565b828054600181600116156101000203166002900490600052602060002090601f016020900481019282601f1061013e57805160ff191683800117855561016b565b8280016001018555821561016b579182015b8281111561016b578251825591602001919060010190610150565b5061017792915061017b565b5090565b5b80821115610177576000815560010161017c565b6103df8061019f6000396000f3fe608060405234801561001057600080fd5b50600436106100575760003560e01c8063248640811461005c5780635d30e84d1461007657806380edef8e14610119578063c006719f1461013d578063cd8e3afe14610145575b600080fd5b6100646101f4565b60408051918252519081900360200190f35b6100936004803603602081101561008c57600080fd5b50356101fa565b6040518084815260200183815260200180602001828103825283818151815260200191508051906020019080838360005b838110156100dc5781810151838201526020016100c4565b50505050905090810190601f1680156101095780820380516001836020036101000a031916815260200191505b5094505050505060405180910390f35b6101216102a3565b604080516001600160a01b039092168252519081900360200190f35b6100646102b2565b6101f26004803603604081101561015b57600080fd5b8135919081019060408101602082013564010000000081111561017d57600080fd5b82018360208201111561018f57600080fd5b803590602001918460018302840111640100000000831117156101b157600080fd5b91908080601f0160208091040260200160405190810160405280939291908181526020018383808284376000920191909152509295506102b8945050505050565b005b60005481565b60036020908152600091825260409182902080546001808301546002808501805488519481161561010002600019011691909104601f8101879004870284018701909752868352929590949192918301828280156102995780601f1061026e57610100808354040283529160200191610299565b820191906000526020600020905b81548152906001019060200180831161027c57829003601f168201915b5050505050905083565b6002546001600160a01b031681565b60015481565b600080546001908101808355604080516060810182528281526020808201888152828401888152948752600382529290952081518155915193820193909355905180519293919261030f9260028501920190610316565b5050505050565b828054600181600116156101000203166002900490600052602060002090601f016020900481019282601f1061035757805160ff1916838001178555610384565b82800160010185558215610384579182015b82811115610384578251825591602001919060010190610369565b50610390929150610394565b5090565b5b80821115610390576000815560010161039556fea2646970667358221220b33b0f80a40779150abf840f4fd0f9a0cfec28331ad6d1b30cb950fe0ef5367064736f6c634300060c0033",
  "immutableReferences": {},
  "source": "// SPDX-License-Identifier: MIT\r\npragma solidity >=0.6.6;\r\n\r\ncontract ProfileRating {\r\n    uint256 public ratingCount = 0;\r\n    uint256 public totalScore = 0;\r\n    address public owner_address;\r\n\r\n    struct Rating {\r\n        uint256 id;\r\n        uint256 score;\r\n        string content;\r\n    }\r\n\r\n    mapping(uint256 => Rating) public ratings;\r\n\r\n    constructor(address _owner_address) public {\r\n        owner_address = _owner_address;\r\n        createRating(5, \"My very first review\");\r\n    }\r\n\r\n    function createRating(uint256 _score, string memory _content) public {\r\n        ratingCount++;\r\n        ratings[ratingCount] = Rating(ratingCount, _score, _content);\r\n    }\r\n}\r\n",
  "sourcePath": "D:\\Coding Projects\\RateMyBiz-Hackathon\\back-end\\smart-contracts\\contracts\\ProfileRating.sol",
  "compiler": {
    "name": "solc",
    "version": "0.6.12+commit.27d51765.Emscripten.clang"
  },
  "schemaVersion": "3.4.7",
  "updatedAt": "2022-04-15T19:45:22.615Z",
  "networkType": "ethereum",
  "devdoc": {
    "kind": "dev",
    "methods": {},
    "version": 1
  },
  "userdoc": {
    "kind": "user",
    "methods": {},
    "version": 1
  }
}