{
  "contractName": "ProfileDetail5",
  "abi": [
    {
      "inputs": [
        {
          "internalType": "address",
          "name": "_ownerAddress",
          "type": "address"
        }
      ],
      "stateMutability": "nonpayable",
      "type": "constructor"
    },
    {
      "anonymous": false,
      "inputs": [
        {
          "indexed": false,
          "internalType": "uint256",
          "name": "id",
          "type": "uint256"
        },
        {
          "indexed": false,
          "internalType": "uint256",
          "name": "score",
          "type": "uint256"
        },
        {
          "indexed": false,
          "internalType": "string",
          "name": "content",
          "type": "string"
        },
        {
          "indexed": false,
          "internalType": "string",
          "name": "toPerson",
          "type": "string"
        },
        {
          "indexed": false,
          "internalType": "string",
          "name": "personType",
          "type": "string"
        },
        {
          "indexed": false,
          "internalType": "uint256",
          "name": "personId",
          "type": "uint256"
        }
      ],
      "name": "ReviewCreated",
      "type": "event"
    },
    {
      "anonymous": false,
      "inputs": [
        {
          "indexed": false,
          "internalType": "uint256",
          "name": "id",
          "type": "uint256"
        },
        {
          "indexed": false,
          "internalType": "uint256",
          "name": "score",
          "type": "uint256"
        },
        {
          "indexed": false,
          "internalType": "string",
          "name": "content",
          "type": "string"
        },
        {
          "indexed": false,
          "internalType": "string",
          "name": "fromPerson",
          "type": "string"
        },
        {
          "indexed": false,
          "internalType": "string",
          "name": "personType",
          "type": "string"
        },
        {
          "indexed": false,
          "internalType": "uint256",
          "name": "personId",
          "type": "uint256"
        }
      ],
      "name": "ReviewReceivedCreated",
      "type": "event"
    },
    {
      "inputs": [],
      "name": "displayScore",
      "outputs": [
        {
          "internalType": "uint256",
          "name": "",
          "type": "uint256"
        }
      ],
      "stateMutability": "view",
      "type": "function",
      "constant": true
    },
    {
      "inputs": [],
      "name": "ownerAddress",
      "outputs": [
        {
          "internalType": "address",
          "name": "",
          "type": "address"
        }
      ],
      "stateMutability": "view",
      "type": "function",
      "constant": true
    },
    {
      "inputs": [
        {
          "internalType": "uint256",
          "name": "",
          "type": "uint256"
        }
      ],
      "name": "receivedReviews",
      "outputs": [
        {
          "internalType": "uint256",
          "name": "id",
          "type": "uint256"
        },
        {
          "internalType": "uint256",
          "name": "score",
          "type": "uint256"
        },
        {
          "internalType": "string",
          "name": "content",
          "type": "string"
        },
        {
          "internalType": "string",
          "name": "fromPerson",
          "type": "string"
        },
        {
          "internalType": "string",
          "name": "personType",
          "type": "string"
        },
        {
          "internalType": "uint256",
          "name": "personId",
          "type": "uint256"
        }
      ],
      "stateMutability": "view",
      "type": "function",
      "constant": true
    },
    {
      "inputs": [],
      "name": "reviewGivenCount",
      "outputs": [
        {
          "internalType": "uint256",
          "name": "",
          "type": "uint256"
        }
      ],
      "stateMutability": "view",
      "type": "function",
      "constant": true
    },
    {
      "inputs": [
        {
          "internalType": "uint256",
          "name": "",
          "type": "uint256"
        }
      ],
      "name": "reviewGivens",
      "outputs": [
        {
          "internalType": "uint256",
          "name": "id",
          "type": "uint256"
        },
        {
          "internalType": "uint256",
          "name": "score",
          "type": "uint256"
        },
        {
          "internalType": "string",
          "name": "content",
          "type": "string"
        },
        {
          "internalType": "string",
          "name": "toPerson",
          "type": "string"
        },
        {
          "internalType": "string",
          "name": "personType",
          "type": "string"
        },
        {
          "internalType": "uint256",
          "name": "personId",
          "type": "uint256"
        }
      ],
      "stateMutability": "view",
      "type": "function",
      "constant": true
    },
    {
      "inputs": [],
      "name": "reviewReceivedCount",
      "outputs": [
        {
          "internalType": "uint256",
          "name": "",
          "type": "uint256"
        }
      ],
      "stateMutability": "view",
      "type": "function",
      "constant": true
    },
    {
      "inputs": [],
      "name": "totalScore",
      "outputs": [
        {
          "internalType": "uint256",
          "name": "",
          "type": "uint256"
        }
      ],
      "stateMutability": "view",
      "type": "function",
      "constant": true
    },
    {
      "inputs": [
        {
          "internalType": "uint256",
          "name": "_score",
          "type": "uint256"
        },
        {
          "internalType": "string",
          "name": "_content",
          "type": "string"
        },
        {
          "internalType": "string",
          "name": "_fromPerson",
          "type": "string"
        },
        {
          "internalType": "string",
          "name": "_personType",
          "type": "string"
        },
        {
          "internalType": "uint256",
          "name": "_personId",
          "type": "uint256"
        }
      ],
      "name": "createReviewReceived",
      "outputs": [],
      "stateMutability": "nonpayable",
      "type": "function"
    },
    {
      "inputs": [
        {
          "internalType": "uint256",
          "name": "_score",
          "type": "uint256"
        },
        {
          "internalType": "string",
          "name": "_content",
          "type": "string"
        },
        {
          "internalType": "string",
          "name": "_toPerson",
          "type": "string"
        },
        {
          "internalType": "string",
          "name": "_personType",
          "type": "string"
        },
        {
          "internalType": "uint256",
          "name": "_personId",
          "type": "uint256"
        }
      ],
      "name": "createReview",
      "outputs": [],
      "stateMutability": "nonpayable",
      "type": "function"
    }
  ],
  "bytecode": "0x6080604052600080556000600155600060025560006003553480156200002457600080fd5b506040516200122f3803806200122f833981810160405260208110156200004a57600080fd5b5051604080518082018252601481527f4d79207665727920666972737420726576696577000000000000000000000000602082810191909152825180840184526007815266088eac64082dcd60cb1b8183015283518085019094526008845267427573696e65737360c01b91840191909152620000ce926005929190600162000180565b6200015a60056040518060400160405280601481526020017f4d792076657279206669667468207265766965770000000000000000000000008152506040518060400160405280600881526020016747696761204c544360c01b81525060405180604001604052806008815260200167427573696e65737360c01b81525060056200018060201b60201c565b600480546001600160a01b0319166001600160a01b039290921691909117905562000469565b600380546001908101918290556040805160c08101825283815260208082018a81528284018a8152606084018a90526080840189905260a08401889052600096875260068352939095208251815594519385019390935590518051919392620001f292600285019290910190620003cd565b506060820151805162000210916003840191602090910190620003cd565b50608082015180516200022e916004840191602090910190620003cd565b5060a082015181600501559050507f6c4fb65692e3db03efd22d5a1c21ec5b65a6508c63c321df6c766b77420a9517600354868686868660405180878152602001868152602001806020018060200180602001858152602001848103845288818151815260200191508051906020019080838360005b83811015620002be578181015183820152602001620002a4565b50505050905090810190601f168015620002ec5780820380516001836020036101000a031916815260200191505b50848103835287518152875160209182019189019080838360005b838110156200032157818101518382015260200162000307565b50505050905090810190601f1680156200034f5780820380516001836020036101000a031916815260200191505b50848103825286518152865160209182019188019080838360005b83811015620003845781810151838201526020016200036a565b50505050905090810190601f168015620003b25780820380516001836020036101000a031916815260200191505b50995050505050505050505060405180910390a15050505050565b828054600181600116156101000203166002900490600052602060002090601f016020900481019282601f106200041057805160ff191683800117855562000440565b8280016001018555821562000440579182015b828111156200044057825182559160200191906001019062000423565b506200044e92915062000452565b5090565b5b808211156200044e576000815560010162000453565b610db680620004796000396000f3fe608060405234801561001057600080fd5b50600436106100935760003560e01c8063a98bb64611610066578063a98bb64614610269578063c006719f14610422578063dfa2e90c1461042a578063e729814814610432578063f24ffddd1461043a57610093565b806344b480a514610098578063531032991461020e57806358f682f2146102285780638f84aa0914610245575b600080fd5b6100b5600480360360208110156100ae57600080fd5b50356105f1565b60405180878152602001868152602001806020018060200180602001858152602001848103845288818151815260200191508051906020019080838360005b8381101561010c5781810151838201526020016100f4565b50505050905090810190601f1680156101395780820380516001836020036101000a031916815260200191505b50848103835287518152875160209182019189019080838360005b8381101561016c578181015183820152602001610154565b50505050905090810190601f1680156101995780820380516001836020036101000a031916815260200191505b50848103825286518152865160209182019188019080838360005b838110156101cc5781810151838201526020016101b4565b50505050905090810190601f1680156101f95780820380516001836020036101000a031916815260200191505b50995050505050505050505060405180910390f35b6102166107c0565b60408051918252519081900360200190f35b6100b56004803603602081101561023e57600080fd5b50356107c6565b61024d61083a565b604080516001600160a01b039092168252519081900360200190f35b610420600480360360a081101561027f57600080fd5b81359190810190604081016020820135600160201b8111156102a057600080fd5b8201836020820111156102b257600080fd5b803590602001918460018302840111600160201b831117156102d357600080fd5b91908080601f0160208091040260200160405190810160405280939291908181526020018383808284376000920191909152509295949360208101935035915050600160201b81111561032557600080fd5b82018360208201111561033757600080fd5b803590602001918460018302840111600160201b8311171561035857600080fd5b91908080601f0160208091040260200160405190810160405280939291908181526020018383808284376000920191909152509295949360208101935035915050600160201b8111156103aa57600080fd5b8201836020820111156103bc57600080fd5b803590602001918460018302840111600160201b831117156103dd57600080fd5b91908080601f0160208091040260200160405190810160405280939291908181526020018383808284376000920191909152509295505091359250610849915050565b005b610216610a87565b610216610a8d565b610216610a93565b610420600480360360a081101561045057600080fd5b81359190810190604081016020820135600160201b81111561047157600080fd5b82018360208201111561048357600080fd5b803590602001918460018302840111600160201b831117156104a457600080fd5b91908080601f0160208091040260200160405190810160405280939291908181526020018383808284376000920191909152509295949360208101935035915050600160201b8111156104f657600080fd5b82018360208201111561050857600080fd5b803590602001918460018302840111600160201b8311171561052957600080fd5b91908080601f0160208091040260200160405190810160405280939291908181526020018383808284376000920191909152509295949360208101935035915050600160201b81111561057b57600080fd5b82018360208201111561058d57600080fd5b803590602001918460018302840111600160201b831117156105ae57600080fd5b91908080601f0160208091040260200160405190810160405280939291908181526020018383808284376000920191909152509295505091359250610a99915050565b60066020908152600091825260409182902080546001808301546002808501805488519481161561010002600019011691909104601f8101879004870284018701909752868352929590949192918301828280156106905780601f1061066557610100808354040283529160200191610690565b820191906000526020600020905b81548152906001019060200180831161067357829003601f168201915b5050505060038301805460408051602060026001851615610100026000190190941693909304601f81018490048402820184019092528181529495949350908301828280156107205780601f106106f557610100808354040283529160200191610720565b820191906000526020600020905b81548152906001019060200180831161070357829003601f168201915b5050505060048301805460408051602060026001851615610100026000190190941693909304601f81018490048402820184019092528181529495949350908301828280156107b05780601f10610785576101008083540402835291602001916107b0565b820191906000526020600020905b81548152906001019060200180831161079357829003601f168201915b5050505050908060050154905086565b60015481565b60056020908152600091825260409182902080546001808301546002808501805488519481161561010002600019011691909104601f8101879004870284018701909752868352929590949192918301828280156106905780601f1061066557610100808354040283529160200191610690565b6004546001600160a01b031681565b600380546001908101918290556040805160c08101825283815260208082018a81528284018a8152606084018a90526080840189905260a084018890526000968752600683529390952082518155945193850193909355905180519193926108b992600285019290910190610ced565b50606082015180516108d5916003840191602090910190610ced565b50608082015180516108f1916004840191602090910190610ced565b5060a082015181600501559050507f6c4fb65692e3db03efd22d5a1c21ec5b65a6508c63c321df6c766b77420a9517600354868686868660405180878152602001868152602001806020018060200180602001858152602001848103845288818151815260200191508051906020019080838360005b8381101561097f578181015183820152602001610967565b50505050905090810190601f1680156109ac5780820380516001836020036101000a031916815260200191505b50848103835287518152875160209182019189019080838360005b838110156109df5781810151838201526020016109c7565b50505050905090810190601f168015610a0c5780820380516001836020036101000a031916815260200191505b50848103825286518152865160209182019188019080838360005b83811015610a3f578181015183820152602001610a27565b50505050905090810190601f168015610a6c5780820380516001836020036101000a031916815260200191505b50995050505050505050505060405180910390a15050505050565b60005481565b60035481565b60025481565b6002805460019081018083556040805160c08101825282815260208082018b81528284018b8152606084018b9052608084018a905260a0840189905260009586526005835293909420825181559351948401949094559051805191949293610b0693850192910190610ced565b5060608201518051610b22916003840191602090910190610ced565b5060808201518051610b3e916004840191602090910190610ced565b5060a082015181600501559050507fe401dadd654fa96f0bab6d706638ef14f19aec89a5262e448a16b4782881855c600254868686868660405180878152602001868152602001806020018060200180602001858152602001848103845288818151815260200191508051906020019080838360005b83811015610bcc578181015183820152602001610bb4565b50505050905090810190601f168015610bf95780820380516001836020036101000a031916815260200191505b50848103835287518152875160209182019189019080838360005b83811015610c2c578181015183820152602001610c14565b50505050905090810190601f168015610c595780820380516001836020036101000a031916815260200191505b50848103825286518152865160209182019188019080838360005b83811015610c8c578181015183820152602001610c74565b50505050905090810190601f168015610cb95780820380516001836020036101000a031916815260200191505b50995050505050505050505060405180910390a1600080548601908190556002549081610ce257fe5b046001555050505050565b828054600181600116156101000203166002900490600052602060002090601f016020900481019282601f10610d2e57805160ff1916838001178555610d5b565b82800160010185558215610d5b579182015b82811115610d5b578251825591602001919060010190610d40565b50610d67929150610d6b565b5090565b5b80821115610d675760008155600101610d6c56fea264697066735822122051ecd5438d44591b5f13130f026fc38525e5a621d1e67845c78a6bacff941a7b64736f6c634300060c0033",
  "immutableReferences": {},
  "source": "// SPDX-License-Identifier: MIT\r\npragma solidity >=0.6.6;\r\n\r\ncontract ProfileDetail5 {\r\n    uint256 public totalScore = 0;\r\n    uint256 public displayScore = 0;\r\n    uint256 public reviewReceivedCount = 0;\r\n    uint256 public reviewGivenCount = 0;\r\n    address public ownerAddress;\r\n\r\n    struct ReceivedReview {\r\n        uint256 id;\r\n        uint256 score;\r\n        string content;\r\n        string fromPerson;\r\n        string personType;\r\n        uint256 personId;\r\n    }\r\n\r\n    struct ReviewGiven {\r\n        uint256 id;\r\n        uint256 score;\r\n        string content;\r\n        string toPerson;\r\n        string personType;\r\n        uint256 personId;\r\n    }\r\n\r\n    mapping(uint256 => ReceivedReview) public receivedReviews;\r\n\r\n    mapping(uint256 => ReviewGiven) public reviewGivens;\r\n\r\n    event ReviewReceivedCreated(\r\n        uint256 id,\r\n        uint256 score,\r\n        string content,\r\n        string fromPerson,\r\n        string personType,\r\n        uint256 personId\r\n    );\r\n\r\n    event ReviewCreated(\r\n        uint256 id,\r\n        uint256 score,\r\n        string content,\r\n        string toPerson,\r\n        string personType,\r\n        uint256 personId\r\n    );\r\n\r\n    constructor(address _ownerAddress) public {\r\n        createReview(5, \"My very first review\", \"Duc Anh\", \"Business\", 1);\r\n        createReview(5, \"My very fifth review\", \"Giga LTC\", \"Business\", 5);\r\n        ownerAddress = _ownerAddress;\r\n    }\r\n\r\n    function createReviewReceived(\r\n        uint256 _score,\r\n        string memory _content,\r\n        string memory _fromPerson,\r\n        string memory _personType,\r\n        uint256 _personId\r\n    ) public {\r\n        reviewReceivedCount++;\r\n        receivedReviews[reviewReceivedCount] = ReceivedReview(\r\n            reviewReceivedCount,\r\n            _score,\r\n            _content,\r\n            _fromPerson,\r\n            _personType,\r\n            _personId\r\n        );\r\n        emit ReviewReceivedCreated(\r\n            reviewReceivedCount,\r\n            _score,\r\n            _content,\r\n            _fromPerson,\r\n            _personType,\r\n            _personId\r\n        );\r\n\r\n        //Calculate Score for the profile\r\n        totalScore += _score;\r\n        displayScore = totalScore / reviewReceivedCount;\r\n    }\r\n\r\n    function createReview(\r\n        uint256 _score,\r\n        string memory _content,\r\n        string memory _toPerson,\r\n        string memory _personType,\r\n        uint256 _personId\r\n    ) public {\r\n        reviewGivenCount++;\r\n        reviewGivens[reviewGivenCount] = ReviewGiven(\r\n            reviewGivenCount,\r\n            _score,\r\n            _content,\r\n            _toPerson,\r\n            _personType,\r\n            _personId\r\n        );\r\n\r\n        emit ReviewCreated(\r\n            reviewGivenCount,\r\n            _score,\r\n            _content,\r\n            _toPerson,\r\n            _personType,\r\n            _personId\r\n        );\r\n    }\r\n}\r\n",
  "sourcePath": "D:\\Coding Projects\\RateMyBiz-Hackathon\\main\\back-end\\smart-contracts\\contracts\\ProfileDetail5.sol",
  "compiler": {
    "name": "solc",
    "version": "0.6.12+commit.27d51765.Emscripten.clang"
  },
  "schemaVersion": "3.4.7",
  "updatedAt": "2022-04-28T02:59:40.077Z",
  "networkType": "ethereum",
  "devdoc": {
    "kind": "dev",
    "methods": {},
    "version": 1
  },
  "userdoc": {
    "kind": "user",
    "methods": {},
    "version": 1
  }
}