{
  "contractName": "ProfileDetail",
  "abi": [
    {
      "inputs": [
        {
          "internalType": "address",
          "name": "_ownerAddress",
          "type": "address"
        }
      ],
      "stateMutability": "nonpayable",
      "type": "constructor"
    },
    {
      "anonymous": false,
      "inputs": [
        {
          "indexed": false,
          "internalType": "uint256",
          "name": "id",
          "type": "uint256"
        },
        {
          "indexed": false,
          "internalType": "uint256",
          "name": "score",
          "type": "uint256"
        },
        {
          "indexed": false,
          "internalType": "string",
          "name": "content",
          "type": "string"
        },
        {
          "indexed": false,
          "internalType": "string",
          "name": "fromPerson",
          "type": "string"
        },
        {
          "indexed": false,
          "internalType": "uint256",
          "name": "personId",
          "type": "uint256"
        }
      ],
      "name": "ReviewCreated",
      "type": "event"
    },
    {
      "anonymous": false,
      "inputs": [
        {
          "indexed": false,
          "internalType": "uint256",
          "name": "id",
          "type": "uint256"
        },
        {
          "indexed": false,
          "internalType": "uint256",
          "name": "score",
          "type": "uint256"
        },
        {
          "indexed": false,
          "internalType": "string",
          "name": "content",
          "type": "string"
        },
        {
          "indexed": false,
          "internalType": "string",
          "name": "fromPerson",
          "type": "string"
        },
        {
          "indexed": false,
          "internalType": "uint256",
          "name": "personId",
          "type": "uint256"
        }
      ],
      "name": "ReviewReceivedCreated",
      "type": "event"
    },
    {
      "inputs": [],
      "name": "displayScore",
      "outputs": [
        {
          "internalType": "uint256",
          "name": "",
          "type": "uint256"
        }
      ],
      "stateMutability": "view",
      "type": "function",
      "constant": true
    },
    {
      "inputs": [],
      "name": "ownerAddress",
      "outputs": [
        {
          "internalType": "address",
          "name": "",
          "type": "address"
        }
      ],
      "stateMutability": "view",
      "type": "function",
      "constant": true
    },
    {
      "inputs": [
        {
          "internalType": "uint256",
          "name": "",
          "type": "uint256"
        }
      ],
      "name": "receivedReviews",
      "outputs": [
        {
          "internalType": "uint256",
          "name": "id",
          "type": "uint256"
        },
        {
          "internalType": "uint256",
          "name": "score",
          "type": "uint256"
        },
        {
          "internalType": "string",
          "name": "content",
          "type": "string"
        },
        {
          "internalType": "string",
          "name": "fromPerson",
          "type": "string"
        },
        {
          "internalType": "uint256",
          "name": "personId",
          "type": "uint256"
        }
      ],
      "stateMutability": "view",
      "type": "function",
      "constant": true
    },
    {
      "inputs": [],
      "name": "reviewGivenCount",
      "outputs": [
        {
          "internalType": "uint256",
          "name": "",
          "type": "uint256"
        }
      ],
      "stateMutability": "view",
      "type": "function",
      "constant": true
    },
    {
      "inputs": [
        {
          "internalType": "uint256",
          "name": "",
          "type": "uint256"
        }
      ],
      "name": "reviewGivens",
      "outputs": [
        {
          "internalType": "uint256",
          "name": "id",
          "type": "uint256"
        },
        {
          "internalType": "uint256",
          "name": "score",
          "type": "uint256"
        },
        {
          "internalType": "string",
          "name": "content",
          "type": "string"
        },
        {
          "internalType": "string",
          "name": "toPerson",
          "type": "string"
        },
        {
          "internalType": "uint256",
          "name": "personId",
          "type": "uint256"
        }
      ],
      "stateMutability": "view",
      "type": "function",
      "constant": true
    },
    {
      "inputs": [],
      "name": "reviewReceivedCount",
      "outputs": [
        {
          "internalType": "uint256",
          "name": "",
          "type": "uint256"
        }
      ],
      "stateMutability": "view",
      "type": "function",
      "constant": true
    },
    {
      "inputs": [],
      "name": "totalScore",
      "outputs": [
        {
          "internalType": "uint256",
          "name": "",
          "type": "uint256"
        }
      ],
      "stateMutability": "view",
      "type": "function",
      "constant": true
    },
    {
      "inputs": [
        {
          "internalType": "uint256",
          "name": "_score",
          "type": "uint256"
        },
        {
          "internalType": "string",
          "name": "_content",
          "type": "string"
        },
        {
          "internalType": "string",
          "name": "_fromPerson",
          "type": "string"
        },
        {
          "internalType": "uint256",
          "name": "_personId",
          "type": "uint256"
        }
      ],
      "name": "createReviewReceived",
      "outputs": [],
      "stateMutability": "nonpayable",
      "type": "function"
    },
    {
      "inputs": [
        {
          "internalType": "uint256",
          "name": "_score",
          "type": "uint256"
        },
        {
          "internalType": "string",
          "name": "_content",
          "type": "string"
        },
        {
          "internalType": "string",
          "name": "_fromPerson",
          "type": "string"
        },
        {
          "internalType": "uint256",
          "name": "_personId",
          "type": "uint256"
        }
      ],
      "name": "createReview",
      "outputs": [],
      "stateMutability": "nonpayable",
      "type": "function"
    }
  ],
  "bytecode": "0x6080604052600080556000600155600060025560006003553480156200002457600080fd5b5060405162000dda38038062000dda833981810160405260208110156200004a57600080fd5b5051600480546001600160a01b0319166001600160a01b038316179055604080518082018252601481527f4d7920766572792066697273742072657669657700000000000000000000000060208083019190915282518084019093526007835266088eac64082dcd60cb1b90830152620000ca91600591906001620000d1565b506200032a565b600380546001908101918290556040805160a081018252838152602080820189815282840189815260608401899052608084018890526000968752600683529390952082518155945193850193909355905180519193926200013c926002850192909101906200028e565b50606082015180516200015a9160038401916020909101906200028e565b50608082015181600401559050507fd4006134e16ea02811c006be36274f338c44434749fe94601a55e58a0c71675a60035485858585604051808681526020018581526020018060200180602001848152602001838103835286818151815260200191508051906020019080838360005b83811015620001e5578181015183820152602001620001cb565b50505050905090810190601f168015620002135780820380516001836020036101000a031916815260200191505b50838103825285518152855160209182019187019080838360005b83811015620002485781810151838201526020016200022e565b50505050905090810190601f168015620002765780820380516001836020036101000a031916815260200191505b5097505050505050505060405180910390a150505050565b828054600181600116156101000203166002900490600052602060002090601f016020900481019282601f10620002d157805160ff191683800117855562000301565b8280016001018555821562000301579182015b8281111562000301578251825591602001919060010190620002e4565b506200030f92915062000313565b5090565b5b808211156200030f576000815560010162000314565b610aa0806200033a6000396000f3fe608060405234801561001057600080fd5b50600436106100935760003560e01c80638f84aa09116100665780638f84aa091461031357806395c7b3e014610337578063c006719f14610469578063dfa2e90c14610471578063e72981481461047957610093565b8063279db2401461009857806344b480a5146101cc57806353103299146102dc57806358f682f2146102f6575b600080fd5b6101ca600480360360808110156100ae57600080fd5b81359190810190604081016020820135600160201b8111156100cf57600080fd5b8201836020820111156100e157600080fd5b803590602001918460018302840111600160201b8311171561010257600080fd5b91908080601f0160208091040260200160405190810160405280939291908181526020018383808284376000920191909152509295949360208101935035915050600160201b81111561015457600080fd5b82018360208201111561016657600080fd5b803590602001918460018302840111600160201b8311171561018757600080fd5b91908080601f0160208091040260200160405190810160405280939291908181526020018383808284376000920191909152509295505091359250610481915050565b005b6101e9600480360360208110156101e257600080fd5b5035610634565b604051808681526020018581526020018060200180602001848152602001838103835286818151815260200191508051906020019080838360005b8381101561023c578181015183820152602001610224565b50505050905090810190601f1680156102695780820380516001836020036101000a031916815260200191505b50838103825285518152855160209182019187019080838360005b8381101561029c578181015183820152602001610284565b50505050905090810190601f1680156102c95780820380516001836020036101000a031916815260200191505b5097505050505050505060405180910390f35b6102e4610773565b60408051918252519081900360200190f35b6101e96004803603602081101561030c57600080fd5b5035610779565b61031b6107ed565b604080516001600160a01b039092168252519081900360200190f35b6101ca6004803603608081101561034d57600080fd5b81359190810190604081016020820135600160201b81111561036e57600080fd5b82018360208201111561038057600080fd5b803590602001918460018302840111600160201b831117156103a157600080fd5b91908080601f0160208091040260200160405190810160405280939291908181526020018383808284376000920191909152509295949360208101935035915050600160201b8111156103f357600080fd5b82018360208201111561040557600080fd5b803590602001918460018302840111600160201b8311171561042657600080fd5b91908080601f01602080910402602001604051908101604052809392919081815260200183838082843760009201919091525092955050913592506107fc915050565b6102e46109c5565b6102e46109cb565b6102e46109d1565b600380546001908101918290556040805160a081018252838152602080820189815282840189815260608401899052608084018890526000968752600683529390952082518155945193850193909355905180519193926104ea926002850192909101906109d7565b50606082015180516105069160038401916020909101906109d7565b50608082015181600401559050507fd4006134e16ea02811c006be36274f338c44434749fe94601a55e58a0c71675a60035485858585604051808681526020018581526020018060200180602001848152602001838103835286818151815260200191508051906020019080838360005b8381101561058f578181015183820152602001610577565b50505050905090810190601f1680156105bc5780820380516001836020036101000a031916815260200191505b50838103825285518152855160209182019187019080838360005b838110156105ef5781810151838201526020016105d7565b50505050905090810190601f16801561061c5780820380516001836020036101000a031916815260200191505b5097505050505050505060405180910390a150505050565b60066020908152600091825260409182902080546001808301546002808501805488519481161561010002600019011691909104601f8101879004870284018701909752868352929590949192918301828280156106d35780601f106106a8576101008083540402835291602001916106d3565b820191906000526020600020905b8154815290600101906020018083116106b657829003601f168201915b5050505060038301805460408051602060026001851615610100026000190190941693909304601f81018490048402820184019092528181529495949350908301828280156107635780601f1061073857610100808354040283529160200191610763565b820191906000526020600020905b81548152906001019060200180831161074657829003601f168201915b5050505050908060040154905085565b60015481565b60056020908152600091825260409182902080546001808301546002808501805488519481161561010002600019011691909104601f8101879004870284018701909752868352929590949192918301828280156106d35780601f106106a8576101008083540402835291602001916106d3565b6004546001600160a01b031681565b6002805460019081018083556040805160a08101825282815260208082018a81528284018a8152606084018a90526080840189905260009586526005835293909420825181559351948401949094559051805191949293610862938501929101906109d7565b506060820151805161087e9160038401916020909101906109d7565b50608082015181600401559050507feaddd8baafecb10d03bab6136c0d73534c47f0df0024c72df9bf74262c9012e160025485858585604051808681526020018581526020018060200180602001848152602001838103835286818151815260200191508051906020019080838360005b838110156109075781810151838201526020016108ef565b50505050905090810190601f1680156109345780820380516001836020036101000a031916815260200191505b50838103825285518152855160209182019187019080838360005b8381101561096757818101518382015260200161094f565b50505050905090810190601f1680156109945780820380516001836020036101000a031916815260200191505b5097505050505050505060405180910390a16000805485019081905560025490816109bb57fe5b0460015550505050565b60005481565b60035481565b60025481565b828054600181600116156101000203166002900490600052602060002090601f016020900481019282601f10610a1857805160ff1916838001178555610a45565b82800160010185558215610a45579182015b82811115610a45578251825591602001919060010190610a2a565b50610a51929150610a55565b5090565b5b80821115610a515760008155600101610a5656fea2646970667358221220a47a00727bc1d2587ddd2bc9436fea40905e091555a74346d491e0cff5648a5b64736f6c634300060c0033",
  "immutableReferences": {},
  "source": "// SPDX-License-Identifier: MIT\r\npragma solidity >=0.6.6;\r\n\r\ncontract ProfileDetail {\r\n    uint256 public totalScore = 0;\r\n    uint256 public displayScore = 0;\r\n    uint256 public reviewReceivedCount = 0;\r\n    uint256 public reviewGivenCount = 0;\r\n    address public ownerAddress;\r\n\r\n    struct ReceivedReview {\r\n        uint256 id;\r\n        uint256 score;\r\n        string content;\r\n        string fromPerson;\r\n        uint256 personId;\r\n    }\r\n\r\n    struct ReviewGiven {\r\n        uint256 id;\r\n        uint256 score;\r\n        string content;\r\n        string toPerson;\r\n        uint256 personId;\r\n    }\r\n\r\n    mapping(uint256 => ReceivedReview) public receivedReviews;\r\n\r\n    mapping(uint256 => ReviewGiven) public reviewGivens;\r\n\r\n    event ReviewReceivedCreated(\r\n        uint256 id,\r\n        uint256 score,\r\n        string content,\r\n        string fromPerson,\r\n        uint256 personId\r\n    );\r\n\r\n    event ReviewCreated(\r\n        uint256 id,\r\n        uint256 score,\r\n        string content,\r\n        string fromPerson,\r\n        uint256 personId\r\n    );\r\n\r\n    constructor(address _ownerAddress) public {\r\n        ownerAddress = _ownerAddress;\r\n        // createRating(5, \"My very first review\");\r\n        createReview(5, \"My very first review\", \"Duc Anh\", 1);\r\n    }\r\n\r\n    function createReviewReceived(\r\n        uint256 _score,\r\n        string memory _content,\r\n        string memory _fromPerson,\r\n        uint256 _personId\r\n    ) public {\r\n        reviewReceivedCount++;\r\n        receivedReviews[reviewReceivedCount] = ReceivedReview(\r\n            reviewReceivedCount,\r\n            _score,\r\n            _content,\r\n            _fromPerson,\r\n            _personId\r\n        );\r\n        emit ReviewReceivedCreated(\r\n            reviewReceivedCount,\r\n            _score,\r\n            _content,\r\n            _fromPerson,\r\n            _personId\r\n        );\r\n\r\n        //Calculate Score for the profile\r\n        totalScore += _score;\r\n        displayScore = totalScore / reviewReceivedCount;\r\n    }\r\n\r\n    function createReview(\r\n        uint256 _score,\r\n        string memory _content,\r\n        string memory _fromPerson,\r\n        uint256 _personId\r\n    ) public {\r\n        reviewGivenCount++;\r\n        reviewGivens[reviewGivenCount] = ReviewGiven(\r\n            reviewGivenCount,\r\n            _score,\r\n            _content,\r\n            _fromPerson,\r\n            _personId\r\n        );\r\n\r\n        emit ReviewCreated(\r\n            reviewGivenCount,\r\n            _score,\r\n            _content,\r\n            _fromPerson,\r\n            _personId\r\n        );\r\n    }\r\n}\r\n",
  "sourcePath": "D:\\Coding Projects\\RateMyBiz-Hackathon\\main\\back-end\\smart-contracts\\contracts\\ProfileDetail.sol",
  "compiler": {
    "name": "solc",
    "version": "0.6.12+commit.27d51765.Emscripten.clang"
  },
  "schemaVersion": "3.4.7",
  "updatedAt": "2022-04-17T16:28:39.038Z",
  "networkType": "ethereum",
  "devdoc": {
    "kind": "dev",
    "methods": {},
    "version": 1
  },
  "userdoc": {
    "kind": "user",
    "methods": {},
    "version": 1
  }
}