{
  "contractName": "Review",
  "abi": [
    {
      "inputs": [
        {
          "internalType": "address",
          "name": "_owner_address",
          "type": "address"
        }
      ],
      "stateMutability": "nonpayable",
      "type": "constructor"
    },
    {
      "inputs": [],
      "name": "owner_address",
      "outputs": [
        {
          "internalType": "address",
          "name": "",
          "type": "address"
        }
      ],
      "stateMutability": "view",
      "type": "function"
    },
    {
      "inputs": [],
      "name": "reviewCount",
      "outputs": [
        {
          "internalType": "uint256",
          "name": "",
          "type": "uint256"
        }
      ],
      "stateMutability": "view",
      "type": "function"
    },
    {
      "inputs": [
        {
          "internalType": "uint256",
          "name": "",
          "type": "uint256"
        }
      ],
      "name": "reviews",
      "outputs": [
        {
          "internalType": "uint256",
          "name": "id",
          "type": "uint256"
        },
        {
          "internalType": "uint256",
          "name": "score",
          "type": "uint256"
        },
        {
          "internalType": "address",
          "name": "person",
          "type": "address"
        },
        {
          "internalType": "string",
          "name": "content",
          "type": "string"
        }
      ],
      "stateMutability": "view",
      "type": "function"
    },
    {
      "inputs": [
        {
          "internalType": "uint256",
          "name": "_score",
          "type": "uint256"
        },
        {
          "internalType": "address",
          "name": "_person",
          "type": "address"
        },
        {
          "internalType": "string",
          "name": "_content",
          "type": "string"
        }
      ],
      "name": "createRating",
      "outputs": [],
      "stateMutability": "nonpayable",
      "type": "function"
    },
    {
      "inputs": [
        {
          "internalType": "uint256",
          "name": "_id",
          "type": "uint256"
        }
      ],
      "name": "toggleCompleted",
      "outputs": [],
      "stateMutability": "nonpayable",
      "type": "function"
    }
  ],
  "bytecode": "0x60806040526000805534801561001457600080fd5b506040516104b73803806104b78339818101604052602081101561003757600080fd5b5051600180546001600160a01b0319166001600160a01b03909216919091179055610450806100676000396000f3fe608060405234801561001057600080fd5b50600436106100575760003560e01c806314d9c56a1461005c578063455f50241461011957806380edef8e14610136578063e83ddcea1461015a578063eff5924f1461020d575b600080fd5b6101176004803603606081101561007257600080fd5b8135916001600160a01b03602082013516918101906060810160408201356401000000008111156100a257600080fd5b8201836020820111156100b457600080fd5b803590602001918460018302840111640100000000831117156100d657600080fd5b91908080601f016020809104026020016040519081016040528093929190818152602001838380828437600092019190915250929550610227945050505050565b005b6101176004803603602081101561012f57600080fd5b50356102b4565b61013e6102b7565b604080516001600160a01b039092168252519081900360200190f35b6101776004803603602081101561017057600080fd5b50356102c6565b60405180858152602001848152602001836001600160a01b0316815260200180602001828103825283818151815260200191508051906020019080838360005b838110156101cf5781810151838201526020016101b7565b50505050905090810190601f1680156101fc5780820380516001836020036101000a031916815260200191505b509550505050505060405180910390f35b610215610381565b60408051918252519081900360200190f35b6000805460019081018083556040805160808101825282815260208082018981526001600160a01b03898116848601908152606085018a815296895260028085529590982084518155915196820196909655955192860180546001600160a01b0319169390951692909217909355905180519293926102ac9260038501920190610387565b505050505050565b50565b6001546001600160a01b031681565b60026020818152600092835260409283902080546001808301548386015460038501805489516101009582161595909502600019011697909704601f8101879004870284018701909852878352929690956001600160a01b03909316949192918301828280156103775780601f1061034c57610100808354040283529160200191610377565b820191906000526020600020905b81548152906001019060200180831161035a57829003601f168201915b5050505050905084565b60005481565b828054600181600116156101000203166002900490600052602060002090601f016020900481019282601f106103c857805160ff19168380011785556103f5565b828001600101855582156103f5579182015b828111156103f55782518255916020019190600101906103da565b50610401929150610405565b5090565b5b80821115610401576000815560010161040656fea2646970667358221220d1e3af81d0f8b449657050e83a4ac63f856e56ac06ac14329639eb7353db3af464736f6c634300060c0033",
  "immutableReferences": {},
  "source": "// SPDX-License-Identifier: MIT\r\npragma solidity >=0.6.6;\r\n\r\ncontract Review {\r\n    uint256 public reviewCount = 0;\r\n    address public owner_address;\r\n\r\n    struct Review {\r\n        uint256 id;\r\n        uint256 score;\r\n        address person;\r\n        string content;\r\n    }\r\n\r\n    mapping(uint256 => Review) public reviews;\r\n\r\n    constructor(address _owner_address) public {\r\n        owner_address = _owner_address;\r\n        // createRating(_score, _person, _content);\r\n    }\r\n\r\n    function createRating(\r\n        uint256 _score,\r\n        address _person,\r\n        string memory _content\r\n    ) public {\r\n        reviewCount++;\r\n        reviews[reviewCount] = Review(reviewCount, _score, _person, _content);\r\n    }\r\n\r\n    function toggleCompleted(uint256 _id) public {}\r\n}\r\n",
  "sourcePath": "D:\\Coding Projects\\RateMyBiz-Hackathon\\main\\back-end\\smart-contracts\\contracts\\Review.sol",
  "compiler": {
    "name": "solc",
    "version": "0.6.12+commit.27d51765.Emscripten.clang"
  },
  "schemaVersion": "3.4.7",
  "updatedAt": "2022-04-28T02:59:03.381Z",
  "devdoc": {
    "kind": "dev",
    "methods": {},
    "version": 1
  },
  "userdoc": {
    "kind": "user",
    "methods": {},
    "version": 1
  }
}